:1000000001308A00B22900008C20C424CD1EA53AFC
:100010008A256F37F536BA24EC32F23400008C2092
:10002000C424CD1EA53A8A256F37F536BA23653923
:1000300069008C20C424CD1EA53A8A256F37F53679
:100040003A21EF39F43000018C20C424CD1EA53AAA
:100050008A256F37F5363A24613A610027308400EB
:1000600083130008031942280130F800F701F70B49
:100070003728F80B36284A30F700F70B3D28402880
:10008000800B342808002E0EF039F7000F300605DB
:1000900077048600000006144D28061008000608A4
:1000A000F700060E0F39F8000800831606108610B8
:1000B0000611831286100F3083160605F03886006D
:1000C000831206150000061400004F207808AE00C9
:1000D00006100000061400004F207808AD0006103E
:1000E0000F3083160605860083122E0EF700F030BF
:1000F000F70577082D04F8007808AD00AD1B5B28E4
:100100002B1C86102B188614000006110000061008
:100110002C0EAD000F30AD052D08AE0043202C088D
:100120000F39AD00AE00432008002830A3000C308A
:10013000A4000130A5000630A600061086100611A6
:100140000F308316060586000610861006110F3044
:100150008312A7002E200130A2002208033C031CBA
:10016000B9280330AE0043200530A7002E20A20A94
:10017000AD280230AE0043200530A7002E20A2019A
:100180002208033C031CD028233022078400831359
:100190000008A700AB012708AC005520A20AC02820
:1001A0008A110A12D929280BD628D9284030A9004B
:1001B000DA28A90101302702A90729088038AA00F6
:1001C000AB012A08AC00552008002608073A03199D
:1001D000F3280B3A0319F828063A03190029023AC2
:1001E000031906290B290130A700A800D3201029E4
:1001F000AB010130AC0055200230A7002E201029A1
:100200000130A7000230A800D3201029AB01103024
:10021000AC00552010290130AB002608AC00552059
:1002200008000B08A3008B13831603178C170C14FC
:100230000000000083120313A31B8B170318482927
:1002400003170C087F390313A30003170D080313CA
:10025000A40003170F080313A5002308A600E52038
:10026000240803178D000313250803178F000313B9
:100270000B08A6008B13831603178C170C140000B1
:10028000000083120313A61B8B17A20B48296729B2
:1002900003170C0D0E0D7F390313A30003170D0870
:1002A0000313A40003170F080313A5002308A600D7
:1002B000E520240803178D000313250803178F007A
:1002C0008D0A03198F0A03100313A20B11290800CA
:1002D0002508F8012402031870292408F7007C2956
:1002E000F7010830A600A40DF70D250877020318C2
:1002F000F700F80DA60B7329080078082208A4005F
:100300006430A50068217708A20078083030031D0A
:100310009029A31C9729A3199729231A20309329E0
:10032000A31123122314F8077808A600E520220859
:10033000A4000A30A50068217708A20078083030B0
:10034000031DA829A319AC29231CAC29231A20308A
:10035000F8077808A600E5203030A2072208A6009A
:10036000E520080003081F3983000130A000831630
:100370001F149F141F159F118313091283129001DC
:100380000030F80092000030831692001F149F1472
:100390001F159F1183121F10F03097059D05033024
:1003A000831685000030860088008312860188014C
:1003B00095280A30A7002E20A001051CEC296430E6
:1003C000A7002E200130A007A1002008093C031D32
:1003D000EC290130A000A100851CFC296430A70095
:1003E0002E200130A0020230A100A008031DFC292C
:1003F0000830A0000230A100003005180130A20032
:1004000000308518013022050319082A0430A100A4
:100410000030051C0130A2000030851C013022058F
:100420000319142A0330A1000230A200FA30A700F9
:100430002E20A20B162A01302002F83E0318392A7A
:10044000083EAF2A01308800392A03308800392A53
:1004500002308800392A06308800392A04308800A2
:10046000392A0C308800392A08308800392A0930A6
:1004700088000A30A7002E2001302102FC3E03181C
:10048000AA2A043EBB2A043003178D0000308F00D7
:10049000031006300313A20011212008A2001B3014
:1004A000A3007D21083003178D0000308F0003105A
:1004B0000C300313A2001121AA2A0F3003178D005C
:1004C00000308F00031006300313A2001121200812
:1004D000A2001B30A3007D21133003178D000030D4
:1004E0008F0003100B300313A2001121AA2A193028
:1004F00003178D0000308F00031006300313A20095
:1005000011212008A2001B30A3007D211D300317FC
:100510008D0000308F0003100C300313A200112156
:10052000AA2A243003178D0000308F0003100630F4
:100530000313A20011212008A2001B30A3007D217B
:10054000283003178D0000308F0003100B30031389
:10055000A20011210A30A7002E20DD2963000A1015
:100560008A140A118207222A252A282A2B2A2E2AAF
:10057000312A342A372A0A108A140A118207432A98
:060580005D2A772A912A92
:02400E00393B3C
:00000001FF
;PIC16F877
;CRC=DB3F  CREATED="10-Nis-22 17:34"
